{
  "_format": "hh-sol-artifact-1",
  "contractName": "TodoContract",
  "sourceName": "contracts/TodoContract.sol",
  "abi": [
    {
      "anonymous": false,
      "inputs": [
        {
          "indexed": false,
          "internalType": "address",
          "name": "receiient",
          "type": "address"
        },
        {
          "indexed": false,
          "internalType": "uint256",
          "name": "todoId",
          "type": "uint256"
        }
      ],
      "name": "AddTodo",
      "type": "event"
    },
    {
      "anonymous": false,
      "inputs": [
        {
          "indexed": false,
          "internalType": "uint256",
          "name": "todoId",
          "type": "uint256"
        },
        {
          "indexed": false,
          "internalType": "bool",
          "name": "isDeleted",
          "type": "bool"
        }
      ],
      "name": "DeleteTodo",
      "type": "event"
    },
    {
      "inputs": [
        {
          "internalType": "string",
          "name": "todoText",
          "type": "string"
        },
        {
          "internalType": "bool",
          "name": "isDeleted",
          "type": "bool"
        }
      ],
      "name": "addTodo",
      "outputs": [],
      "stateMutability": "nonpayable",
      "type": "function"
    },
    {
      "inputs": [
        {
          "internalType": "uint256",
          "name": "todoId",
          "type": "uint256"
        },
        {
          "internalType": "bool",
          "name": "isDeleted",
          "type": "bool"
        }
      ],
      "name": "deleteTodo",
      "outputs": [],
      "stateMutability": "nonpayable",
      "type": "function"
    },
    {
      "inputs": [],
      "name": "fetchMyTodos",
      "outputs": [
        {
          "components": [
            {
              "internalType": "uint256",
              "name": "id",
              "type": "uint256"
            },
            {
              "internalType": "string",
              "name": "todoText",
              "type": "string"
            },
            {
              "internalType": "bool",
              "name": "isDeleted",
              "type": "bool"
            }
          ],
          "internalType": "struct TodoContract.Todo[]",
          "name": "",
          "type": "tuple[]"
        }
      ],
      "stateMutability": "view",
      "type": "function"
    }
  ],
  "bytecode": "0x608060405234801561001057600080fd5b50610da8806100206000396000f3fe608060405234801561001057600080fd5b50600436106100415760003560e01c80633197deef146100465780637205351c14610064578063a0cc2a5614610080575b600080fd5b61004e61009c565b60405161005b91906106de565b60405180910390f35b61007e6004803603810190610079919061076c565b6102e1565b005b61009a600480360381019061009591906108e1565b6103c2565b005b60606000808054905067ffffffffffffffff8111156100be576100bd6107b6565b5b6040519080825280602002602001820160405280156100f757816020015b6100e46104e5565b8152602001906001900390816100dc5790505b5090506000805b6000805490508110156102d8573373ffffffffffffffffffffffffffffffffffffffff166001600083815260200190815260200160002060009054906101000a900473ffffffffffffffffffffffffffffffffffffffff1673ffffffffffffffffffffffffffffffffffffffff161480156101af5750600015156000828154811061018c5761018b61093d565b5b906000526020600020906003020160020160009054906101000a900460ff161515145b156102c557600081815481106101c8576101c761093d565b5b9060005260206000209060030201604051806060016040529081600082015481526020016001820180546101fb9061099b565b80601f01602080910402602001604051908101604052809291908181526020018280546102279061099b565b80156102745780601f1061024957610100808354040283529160200191610274565b820191906000526020600020905b81548152906001019060200180831161025757829003601f168201915b505050505081526020016002820160009054906101000a900460ff1615151515815250508383815181106102ab576102aa61093d565b5b602002602001018190525081806102c1906109fb565b9250505b80806102d0906109fb565b9150506100fe565b50819250505090565b3373ffffffffffffffffffffffffffffffffffffffff166001600084815260200190815260200160002060009054906101000a900473ffffffffffffffffffffffffffffffffffffffff1673ffffffffffffffffffffffffffffffffffffffff16036103be57806000838154811061035c5761035b61093d565b5b906000526020600020906003020160020160006101000a81548160ff0219169083151502179055507f4d3f78f0596d39b555572af3b3508d43d776242a1b22c87f97fa71f13e9b2caa82826040516103b5929190610a61565b60405180910390a15b5050565b6000808054905090506000604051806060016040528083815260200185815260200184151581525090806001815401808255809150506001900390600052602060002090600302016000909190919091506000820151816000015560208201518160010190816104329190610c36565b5060408201518160020160006101000a81548160ff0219169083151502179055505050336001600083815260200190815260200160002060006101000a81548173ffffffffffffffffffffffffffffffffffffffff021916908373ffffffffffffffffffffffffffffffffffffffff1602179055507feb2fbc651194cbec6fe990857b04243a010e3e05d12441e94a73f3dddb1129d533826040516104d8929190610d49565b60405180910390a1505050565b604051806060016040528060008152602001606081526020016000151581525090565b600081519050919050565b600082825260208201905092915050565b6000819050602082019050919050565b6000819050919050565b61054781610534565b82525050565b600081519050919050565b600082825260208201905092915050565b60005b8381101561058757808201518184015260208101905061056c565b60008484015250505050565b6000601f19601f8301169050919050565b60006105af8261054d565b6105b98185610558565b93506105c9818560208601610569565b6105d281610593565b840191505092915050565b60008115159050919050565b6105f2816105dd565b82525050565b6000606083016000830151610610600086018261053e565b506020830151848203602086015261062882826105a4565b915050604083015161063d60408601826105e9565b508091505092915050565b600061065483836105f8565b905092915050565b6000602082019050919050565b600061067482610508565b61067e8185610513565b93508360208202850161069085610524565b8060005b858110156106cc57848403895281516106ad8582610648565b94506106b88361065c565b925060208a01995050600181019050610694565b50829750879550505050505092915050565b600060208201905081810360008301526106f88184610669565b905092915050565b6000604051905090565b600080fd5b600080fd5b61071d81610534565b811461072857600080fd5b50565b60008135905061073a81610714565b92915050565b610749816105dd565b811461075457600080fd5b50565b60008135905061076681610740565b92915050565b600080604083850312156107835761078261070a565b5b60006107918582860161072b565b92505060206107a285828601610757565b9150509250929050565b600080fd5b600080fd5b7f4e487b7100000000000000000000000000000000000000000000000000000000600052604160045260246000fd5b6107ee82610593565b810181811067ffffffffffffffff8211171561080d5761080c6107b6565b5b80604052505050565b6000610820610700565b905061082c82826107e5565b919050565b600067ffffffffffffffff82111561084c5761084b6107b6565b5b61085582610593565b9050602081019050919050565b82818337600083830152505050565b600061088461087f84610831565b610816565b9050828152602081018484840111156108a05761089f6107b1565b5b6108ab848285610862565b509392505050565b600082601f8301126108c8576108c76107ac565b5b81356108d8848260208601610871565b91505092915050565b600080604083850312156108f8576108f761070a565b5b600083013567ffffffffffffffff8111156109165761091561070f565b5b610922858286016108b3565b925050602061093385828601610757565b9150509250929050565b7f4e487b7100000000000000000000000000000000000000000000000000000000600052603260045260246000fd5b7f4e487b7100000000000000000000000000000000000000000000000000000000600052602260045260246000fd5b600060028204905060018216806109b357607f821691505b6020821081036109c6576109c561096c565b5b50919050565b7f4e487b7100000000000000000000000000000000000000000000000000000000600052601160045260246000fd5b6000610a0682610534565b91507fffffffffffffffffffffffffffffffffffffffffffffffffffffffffffffffff8203610a3857610a376109cc565b5b600182019050919050565b610a4c81610534565b82525050565b610a5b816105dd565b82525050565b6000604082019050610a766000830185610a43565b610a836020830184610a52565b9392505050565b60008190508160005260206000209050919050565b60006020601f8301049050919050565b600082821b905092915050565b600060088302610aec7fffffffffffffffffffffffffffffffffffffffffffffffffffffffffffffffff82610aaf565b610af68683610aaf565b95508019841693508086168417925050509392505050565b6000819050919050565b6000610b33610b2e610b2984610534565b610b0e565b610534565b9050919050565b6000819050919050565b610b4d83610b18565b610b61610b5982610b3a565b848454610abc565b825550505050565b600090565b610b76610b69565b610b81818484610b44565b505050565b5b81811015610ba557610b9a600082610b6e565b600181019050610b87565b5050565b601f821115610bea57610bbb81610a8a565b610bc484610a9f565b81016020851015610bd3578190505b610be7610bdf85610a9f565b830182610b86565b50505b505050565b600082821c905092915050565b6000610c0d60001984600802610bef565b1980831691505092915050565b6000610c268383610bfc565b9150826002028217905092915050565b610c3f8261054d565b67ffffffffffffffff811115610c5857610c576107b6565b5b610c62825461099b565b610c6d828285610ba9565b600060209050601f831160018114610ca05760008415610c8e578287015190505b610c988582610c1a565b865550610d00565b601f198416610cae86610a8a565b60005b82811015610cd657848901518255600182019150602085019450602081019050610cb1565b86831015610cf35784890151610cef601f891682610bfc565b8355505b6001600288020188555050505b505050505050565b600073ffffffffffffffffffffffffffffffffffffffff82169050919050565b6000610d3382610d08565b9050919050565b610d4381610d28565b82525050565b6000604082019050610d5e6000830185610d3a565b610d6b6020830184610a43565b939250505056fea2646970667358221220a8c6cb0a2a70b60e545ffc1fb54419463f156f135f712b32a2acc1c1a28493ed64736f6c63430008110033",
  "linkReferences": {},
  "deployedLinkReferences": {}
}